{
  "transactions": [
    {
      "hash": "0x987e6e16828e3f5a4991a1e7a5fd1bc29ecb6ffa9b445449bb31b3df34fcbab8",
      "transactionType": "CALL",
      "contractName": null,
      "contractAddress": "0x779877a7b0d9e8603169ddbd7836e478b4624789",
      "function": "transferAndCall(address,uint256,bytes)",
      "arguments": [
        "0x9DdfaCa8183c41ad55329BdeeD9F6A8d53168B1B",
        "3000000000000000000",
        "0x96bd54ea1d390eddff7922f8ca47bb8191eceed473fea71caa6313a8199b2ab7"
      ],
      "transaction": {
        "from": "0x7b8b080bfbf22618744de2a4215d441f7a2f93e7",
        "to": "0x779877a7b0d9e8603169ddbd7836e478b4624789",
        "gas": "0x1c1ff",
        "value": "0x0",
        "input": "0x4000aea00000000000000000000000009ddfaca8183c41ad55329bdeed9f6a8d53168b1b00000000000000000000000000000000000000000000000029a2241af62c00000000000000000000000000000000000000000000000000000000000000000060000000000000000000000000000000000000000000000000000000000000002096bd54ea1d390eddff7922f8ca47bb8191eceed473fea71caa6313a8199b2ab7",
        "nonce": "0x8",
        "chainId": "0xaa36a7"
      },
      "additionalContracts": [],
      "isFixedGasLimit": false
    }
  ],
  "receipts": [
    {
      "status": "0x1",
      "cumulativeGasUsed": "0x123d399",
      "logs": [
        {
          "address": "0x779877a7b0d9e8603169ddbd7836e478b4624789",
          "topics": [
            "0xddf252ad1be2c89b69c2b068fc378daa952ba7f163c4a11628f55a4df523b3ef",
            "0x0000000000000000000000007b8b080bfbf22618744de2a4215d441f7a2f93e7",
            "0x0000000000000000000000009ddfaca8183c41ad55329bdeed9f6a8d53168b1b"
          ],
          "data": "0x00000000000000000000000000000000000000000000000029a2241af62c0000",
          "blockHash": "0x08085ea74405118d9b38518ab2aaf1617eea4f10d116fb745c3165bb1fc589e0",
          "blockNumber": "0x78d9cc",
          "blockTimestamp": "0x67d7ebf8",
          "transactionHash": "0x987e6e16828e3f5a4991a1e7a5fd1bc29ecb6ffa9b445449bb31b3df34fcbab8",
          "transactionIndex": "0x81",
          "logIndex": "0x82",
          "removed": false
        },
        {
          "address": "0x779877a7b0d9e8603169ddbd7836e478b4624789",
          "topics": [
            "0xe19260aff97b920c7df27010903aeb9c8d2be5d310a2c67824cf3f15396e4c16",
            "0x0000000000000000000000007b8b080bfbf22618744de2a4215d441f7a2f93e7",
            "0x0000000000000000000000009ddfaca8183c41ad55329bdeed9f6a8d53168b1b"
          ],
          "data": "0x00000000000000000000000000000000000000000000000029a2241af62c00000000000000000000000000000000000000000000000000000000000000000040000000000000000000000000000000000000000000000000000000000000002096bd54ea1d390eddff7922f8ca47bb8191eceed473fea71caa6313a8199b2ab7",
          "blockHash": "0x08085ea74405118d9b38518ab2aaf1617eea4f10d116fb745c3165bb1fc589e0",
          "blockNumber": "0x78d9cc",
          "blockTimestamp": "0x67d7ebf8",
          "transactionHash": "0x987e6e16828e3f5a4991a1e7a5fd1bc29ecb6ffa9b445449bb31b3df34fcbab8",
          "transactionIndex": "0x81",
          "logIndex": "0x83",
          "removed": false
        },
        {
          "address": "0x9ddfaca8183c41ad55329bdeed9f6a8d53168b1b",
          "topics": [
            "0x1ced9348ff549fceab2ac57cd3a9de38edaaab274b725ee82c23e8fc8c4eec7a",
            "0x96bd54ea1d390eddff7922f8ca47bb8191eceed473fea71caa6313a8199b2ab7"
          ],
          "data": "0x000000000000000000000000000000000000000000000000000000000000000000000000000000000000000000000000000000000000000029a2241af62c0000",
          "blockHash": "0x08085ea74405118d9b38518ab2aaf1617eea4f10d116fb745c3165bb1fc589e0",
          "blockNumber": "0x78d9cc",
          "blockTimestamp": "0x67d7ebf8",
          "transactionHash": "0x987e6e16828e3f5a4991a1e7a5fd1bc29ecb6ffa9b445449bb31b3df34fcbab8",
          "transactionIndex": "0x81",
          "logIndex": "0x84",
          "removed": false
        }
      ],
      "logsBloom": "0x00000004000000200000000000000000000000000020000000000000020000000000000000000000000000000000000000000000000000000000000000000000000000000000000000000008010000000000000000000000000020000020000008000000000000000000000000000000000000000000000000000010000040000000000000000000000000010000800000000020100000004000000000000000000000000000000000000000010000000000000000000000000004000800000000000002000000000000000000000000080000000000000100000000000000000010000000000000800000000000000000000000000000000000000000000000",
      "type": "0x2",
      "transactionHash": "0x987e6e16828e3f5a4991a1e7a5fd1bc29ecb6ffa9b445449bb31b3df34fcbab8",
      "transactionIndex": "0x81",
      "blockHash": "0x08085ea74405118d9b38518ab2aaf1617eea4f10d116fb745c3165bb1fc589e0",
      "blockNumber": "0x78d9cc",
      "gasUsed": "0x133b1",
      "effectiveGasPrice": "0x7466d8e1f",
      "from": "0x7b8b080bfbf22618744de2a4215d441f7a2f93e7",
      "to": "0x779877a7b0d9e8603169ddbd7836e478b4624789",
      "contractAddress": null
    }
  ],
  "libraries": [],
  "pending": [],
  "returns": {},
  "timestamp": 1742203897,
  "chain": 11155111,
  "commit": "5af51c2"
}